{
    "contractName": "SadCatsNFT",
    "abi": [
        {
            "inputs": [],
            "stateMutability": "nonpayable",
            "type": "constructor"
        },
        {
            "inputs": [],
            "name": "ApprovalCallerNotOwnerNorApproved",
            "type": "error"
        },
        {
            "inputs": [],
            "name": "ApprovalQueryForNonexistentToken",
            "type": "error"
        },
        {
            "inputs": [],
            "name": "BalanceQueryForZeroAddress",
            "type": "error"
        },
        {
            "inputs": [],
            "name": "MintERC2309QuantityExceedsLimit",
            "type": "error"
        },
        {
            "inputs": [],
            "name": "MintToZeroAddress",
            "type": "error"
        },
        {
            "inputs": [],
            "name": "MintZeroQuantity",
            "type": "error"
        },
        {
            "inputs": [],
            "name": "OwnerQueryForNonexistentToken",
            "type": "error"
        },
        {
            "inputs": [],
            "name": "OwnershipNotInitializedForExtraData",
            "type": "error"
        },
        {
            "inputs": [],
            "name": "TransferCallerNotOwnerNorApproved",
            "type": "error"
        },
        {
            "inputs": [],
            "name": "TransferFromIncorrectOwner",
            "type": "error"
        },
        {
            "inputs": [],
            "name": "TransferToNonERC721ReceiverImplementer",
            "type": "error"
        },
        {
            "inputs": [],
            "name": "TransferToZeroAddress",
            "type": "error"
        },
        {
            "inputs": [],
            "name": "URIQueryForNonexistentToken",
            "type": "error"
        },
        {
            "anonymous": false,
            "inputs": [
                {
                    "indexed": true,
                    "internalType": "address",
                    "name": "owner",
                    "type": "address"
                },
                {
                    "indexed": true,
                    "internalType": "address",
                    "name": "approved",
                    "type": "address"
                },
                {
                    "indexed": true,
                    "internalType": "uint256",
                    "name": "tokenId",
                    "type": "uint256"
                }
            ],
            "name": "Approval",
            "type": "event"
        },
        {
            "anonymous": false,
            "inputs": [
                {
                    "indexed": true,
                    "internalType": "address",
                    "name": "owner",
                    "type": "address"
                },
                {
                    "indexed": true,
                    "internalType": "address",
                    "name": "operator",
                    "type": "address"
                },
                {
                    "indexed": false,
                    "internalType": "bool",
                    "name": "approved",
                    "type": "bool"
                }
            ],
            "name": "ApprovalForAll",
            "type": "event"
        },
        {
            "anonymous": false,
            "inputs": [
                {
                    "indexed": true,
                    "internalType": "uint256",
                    "name": "fromTokenId",
                    "type": "uint256"
                },
                {
                    "indexed": false,
                    "internalType": "uint256",
                    "name": "toTokenId",
                    "type": "uint256"
                },
                {
                    "indexed": true,
                    "internalType": "address",
                    "name": "from",
                    "type": "address"
                },
                {
                    "indexed": true,
                    "internalType": "address",
                    "name": "to",
                    "type": "address"
                }
            ],
            "name": "ConsecutiveTransfer",
            "type": "event"
        },
        {
            "anonymous": false,
            "inputs": [
                {
                    "indexed": true,
                    "internalType": "address",
                    "name": "previousOwner",
                    "type": "address"
                },
                {
                    "indexed": true,
                    "internalType": "address",
                    "name": "newOwner",
                    "type": "address"
                }
            ],
            "name": "OwnershipTransferred",
            "type": "event"
        },
        {
            "anonymous": false,
            "inputs": [
                {
                    "indexed": true,
                    "internalType": "address",
                    "name": "from",
                    "type": "address"
                },
                {
                    "indexed": true,
                    "internalType": "address",
                    "name": "to",
                    "type": "address"
                },
                {
                    "indexed": true,
                    "internalType": "uint256",
                    "name": "tokenId",
                    "type": "uint256"
                }
            ],
            "name": "Transfer",
            "type": "event"
        },
        {
            "inputs": [],
            "name": "MAX_SUPPLY",
            "outputs": [
                {
                    "internalType": "uint256",
                    "name": "",
                    "type": "uint256"
                }
            ],
            "stateMutability": "view",
            "type": "function"
        },
        {
            "inputs": [],
            "name": "allowListPrice",
            "outputs": [
                {
                    "internalType": "uint256",
                    "name": "",
                    "type": "uint256"
                }
            ],
            "stateMutability": "view",
            "type": "function"
        },
        {
            "inputs": [
                {
                    "internalType": "address",
                    "name": "to",
                    "type": "address"
                },
                {
                    "internalType": "uint256",
                    "name": "tokenId",
                    "type": "uint256"
                }
            ],
            "name": "approve",
            "outputs": [],
            "stateMutability": "payable",
            "type": "function"
        },
        {
            "inputs": [
                {
                    "internalType": "address",
                    "name": "owner",
                    "type": "address"
                }
            ],
            "name": "balanceOf",
            "outputs": [
                {
                    "internalType": "uint256",
                    "name": "",
                    "type": "uint256"
                }
            ],
            "stateMutability": "view",
            "type": "function"
        },
        {
            "inputs": [],
            "name": "currentMintBatch",
            "outputs": [
                {
                    "internalType": "uint8",
                    "name": "",
                    "type": "uint8"
                }
            ],
            "stateMutability": "view",
            "type": "function"
        },
        {
            "inputs": [
                {
                    "internalType": "uint256",
                    "name": "tokenId",
                    "type": "uint256"
                }
            ],
            "name": "getApproved",
            "outputs": [
                {
                    "internalType": "address",
                    "name": "",
                    "type": "address"
                }
            ],
            "stateMutability": "view",
            "type": "function"
        },
        {
            "inputs": [
                {
                    "internalType": "address",
                    "name": "owner",
                    "type": "address"
                },
                {
                    "internalType": "address",
                    "name": "operator",
                    "type": "address"
                }
            ],
            "name": "isApprovedForAll",
            "outputs": [
                {
                    "internalType": "bool",
                    "name": "",
                    "type": "bool"
                }
            ],
            "stateMutability": "view",
            "type": "function"
        },
        {
            "inputs": [],
            "name": "isRevealed",
            "outputs": [
                {
                    "internalType": "bool",
                    "name": "",
                    "type": "bool"
                }
            ],
            "stateMutability": "view",
            "type": "function"
        },
        {
            "inputs": [],
            "name": "mintBatch1Root",
            "outputs": [
                {
                    "internalType": "bytes32",
                    "name": "",
                    "type": "bytes32"
                }
            ],
            "stateMutability": "view",
            "type": "function"
        },
        {
            "inputs": [],
            "name": "mintBatch2Root",
            "outputs": [
                {
                    "internalType": "bytes32",
                    "name": "",
                    "type": "bytes32"
                }
            ],
            "stateMutability": "view",
            "type": "function"
        },
        {
            "inputs": [],
            "name": "name",
            "outputs": [
                {
                    "internalType": "string",
                    "name": "",
                    "type": "string"
                }
            ],
            "stateMutability": "view",
            "type": "function"
        },
        {
            "inputs": [],
            "name": "owner",
            "outputs": [
                {
                    "internalType": "address",
                    "name": "",
                    "type": "address"
                }
            ],
            "stateMutability": "view",
            "type": "function"
        },
        {
            "inputs": [
                {
                    "internalType": "uint256",
                    "name": "tokenId",
                    "type": "uint256"
                }
            ],
            "name": "ownerOf",
            "outputs": [
                {
                    "internalType": "address",
                    "name": "",
                    "type": "address"
                }
            ],
            "stateMutability": "view",
            "type": "function"
        },
        {
            "inputs": [],
            "name": "publicMint",
            "outputs": [],
            "stateMutability": "payable",
            "type": "function"
        },
        {
            "inputs": [],
            "name": "publicSalePrice",
            "outputs": [
                {
                    "internalType": "uint256",
                    "name": "",
                    "type": "uint256"
                }
            ],
            "stateMutability": "view",
            "type": "function"
        },
        {
            "inputs": [],
            "name": "renounceOwnership",
            "outputs": [],
            "stateMutability": "nonpayable",
            "type": "function"
        },
        {
            "inputs": [
                {
                    "internalType": "address",
                    "name": "from",
                    "type": "address"
                },
                {
                    "internalType": "address",
                    "name": "to",
                    "type": "address"
                },
                {
                    "internalType": "uint256",
                    "name": "tokenId",
                    "type": "uint256"
                }
            ],
            "name": "safeTransferFrom",
            "outputs": [],
            "stateMutability": "payable",
            "type": "function"
        },
        {
            "inputs": [
                {
                    "internalType": "address",
                    "name": "from",
                    "type": "address"
                },
                {
                    "internalType": "address",
                    "name": "to",
                    "type": "address"
                },
                {
                    "internalType": "uint256",
                    "name": "tokenId",
                    "type": "uint256"
                },
                {
                    "internalType": "bytes",
                    "name": "_data",
                    "type": "bytes"
                }
            ],
            "name": "safeTransferFrom",
            "outputs": [],
            "stateMutability": "payable",
            "type": "function"
        },
        {
            "inputs": [
                {
                    "internalType": "uint256",
                    "name": "_price",
                    "type": "uint256"
                }
            ],
            "name": "setAllowListPrice",
            "outputs": [],
            "stateMutability": "nonpayable",
            "type": "function"
        },
        {
            "inputs": [
                {
                    "internalType": "address",
                    "name": "operator",
                    "type": "address"
                },
                {
                    "internalType": "bool",
                    "name": "approved",
                    "type": "bool"
                }
            ],
            "name": "setApprovalForAll",
            "outputs": [],
            "stateMutability": "nonpayable",
            "type": "function"
        },
        {
            "inputs": [
                {
                    "internalType": "uint8",
                    "name": "_batch",
                    "type": "uint8"
                }
            ],
            "name": "setCurrentMintBatch",
            "outputs": [],
            "stateMutability": "nonpayable",
            "type": "function"
        },
        {
            "inputs": [
                {
                    "internalType": "bytes32",
                    "name": "_merkleRoot",
                    "type": "bytes32"
                }
            ],
            "name": "setMintBatch1Root",
            "outputs": [],
            "stateMutability": "nonpayable",
            "type": "function"
        },
        {
            "inputs": [
                {
                    "internalType": "bytes32",
                    "name": "_merkleRoot",
                    "type": "bytes32"
                }
            ],
            "name": "setMintBatch2Root",
            "outputs": [],
            "stateMutability": "nonpayable",
            "type": "function"
        },
        {
            "inputs": [
                {
                    "internalType": "uint256",
                    "name": "_price",
                    "type": "uint256"
                }
            ],
            "name": "setPublicSalePrice",
            "outputs": [],
            "stateMutability": "nonpayable",
            "type": "function"
        },
        {
            "inputs": [
                {
                    "internalType": "bytes4",
                    "name": "interfaceId",
                    "type": "bytes4"
                }
            ],
            "name": "supportsInterface",
            "outputs": [
                {
                    "internalType": "bool",
                    "name": "",
                    "type": "bool"
                }
            ],
            "stateMutability": "view",
            "type": "function"
        },
        {
            "inputs": [],
            "name": "symbol",
            "outputs": [
                {
                    "internalType": "string",
                    "name": "",
                    "type": "string"
                }
            ],
            "stateMutability": "view",
            "type": "function"
        },
        {
            "inputs": [
                {
                    "internalType": "uint256",
                    "name": "tokenId",
                    "type": "uint256"
                }
            ],
            "name": "tokenURI",
            "outputs": [
                {
                    "internalType": "string",
                    "name": "",
                    "type": "string"
                }
            ],
            "stateMutability": "view",
            "type": "function"
        },
        {
            "inputs": [],
            "name": "totalSupply",
            "outputs": [
                {
                    "internalType": "uint256",
                    "name": "",
                    "type": "uint256"
                }
            ],
            "stateMutability": "view",
            "type": "function"
        },
        {
            "inputs": [
                {
                    "internalType": "address",
                    "name": "from",
                    "type": "address"
                },
                {
                    "internalType": "address",
                    "name": "to",
                    "type": "address"
                },
                {
                    "internalType": "uint256",
                    "name": "tokenId",
                    "type": "uint256"
                }
            ],
            "name": "transferFrom",
            "outputs": [],
            "stateMutability": "payable",
            "type": "function"
        },
        {
            "inputs": [
                {
                    "internalType": "address",
                    "name": "newOwner",
                    "type": "address"
                }
            ],
            "name": "transferOwnership",
            "outputs": [],
            "stateMutability": "nonpayable",
            "type": "function"
        }
    ],
    "bytecode": "67016345785d8a0000600b556701aa535d3d0c0000600c55600d805461ff001916905560c06040526005608081905264173539b7b760d91b60a09081526200004b916010919062000132565b503480156200005957600080fd5b50604080518082018252600c81526b14d8590810d85d1cc813919560a21b6020808301918252835180850190945260078452665341444341545360c81b908401528151919291620000ad9160029162000132565b508051620000c390600390602084019062000132565b506000805550506001600855620000da33620000e0565b62000215565b600980546001600160a01b038381166001600160a01b0319831681179093556040519116919082907f8be0079c531659141344cd1fd0a4f28419497f9722a3daafe3b4186f6b6457e090600090a35050565b8280546200014090620001d8565b90600052602060002090601f016020900481019282620001645760008555620001af565b82601f106200017f57805160ff1916838001178555620001af565b82800160010185558215620001af579182015b82811115620001af57825182559160200191906001019062000192565b50620001bd929150620001c1565b5090565b5b80821115620001bd5760008155600101620001c2565b600181811c90821680620001ed57607f821691505b602082108114156200020f57634e487b7160e01b600052602260045260246000fd5b50919050565b61152080620002256000396000f3fe6080604052600436106101cd5760003560e01c80636df9fa88116100f75780639b6860c811610095578063c87b56dd11610064578063c87b56dd146104b2578063e2610bba146104d2578063e985e9c5146104fe578063f2fde38b1461054757600080fd5b80639b6860c814610453578063a22cb46514610469578063a24e515314610489578063b88d4fde1461049f57600080fd5b8063791a2519116100d1578063791a2519146103e05780638da5cb5b1461040057806395d89b411461041e578063981076c71461043357600080fd5b80636df9fa881461038b57806370a08231146103ab578063715018a6146103cb57600080fd5b806326092b831161016f57806352e25a701161013e57806352e25a701461031657806354214f691461032c578063571e56771461034b5780636352211e1461036b57600080fd5b806326092b83146102c657806332cb6b0c146102ce57806342842e0e146102e357806342fd9f01146102f657600080fd5b8063095ea7b3116101ab578063095ea7b314610261578063160224c91461027657806318160ddd1461029a57806323b872dd146102b357600080fd5b806301ffc9a7146101d257806306fdde0314610207578063081812fc14610229575b600080fd5b3480156101de57600080fd5b506101f26101ed366004611134565b610567565b60405190151581526020015b60405180910390f35b34801561021357600080fd5b5061021c6105b9565b6040516101fe91906111a9565b34801561023557600080fd5b506102496102443660046111bc565b61064b565b6040516001600160a01b0390911681526020016101fe565b61027461026f3660046111ec565b610686565b005b34801561028257600080fd5b5061028c60125481565b6040519081526020016101fe565b3480156102a657600080fd5b506001546000540361028c565b6102746102c1366004611216565b610696565b6102746107f1565b3480156102da57600080fd5b5061028c600781565b6102746102f1366004611216565b610995565b34801561030257600080fd5b50610274610311366004611252565b6109b5565b34801561032257600080fd5b5061028c60115481565b34801561033857600080fd5b50600d546101f290610100900460ff1681565b34801561035757600080fd5b506102746103663660046111bc565b6109f5565b34801561037757600080fd5b506102496103863660046111bc565b610a24565b34801561039757600080fd5b506102746103a63660046111bc565b610a2f565b3480156103b757600080fd5b5061028c6103c6366004611275565b610a5e565b3480156103d757600080fd5b50610274610aa4565b3480156103ec57600080fd5b506102746103fb3660046111bc565b610ad8565b34801561040c57600080fd5b506009546001600160a01b0316610249565b34801561042a57600080fd5b5061021c610b07565b34801561043f57600080fd5b5061027461044e3660046111bc565b610b16565b34801561045f57600080fd5b5061028c600c5481565b34801561047557600080fd5b50610274610484366004611290565b610b45565b34801561049557600080fd5b5061028c600b5481565b6102746104ad3660046112e2565b610bb1565b3480156104be57600080fd5b5061021c6104cd3660046111bc565b610bf2565b3480156104de57600080fd5b50600d546104ec9060ff1681565b60405160ff90911681526020016101fe565b34801561050a57600080fd5b506101f26105193660046113be565b6001600160a01b03918216600090815260076020908152604080832093909416825291909152205460ff1690565b34801561055357600080fd5b50610274610562366004611275565b610c7b565b60006301ffc9a760e01b6001600160e01b03198316148061059857506380ac58cd60e01b6001600160e01b03198316145b806105b35750635b5e139f60e01b6001600160e01b03198316145b92915050565b6060600280546105c8906113f1565b80601f01602080910402602001604051908101604052809291908181526020018280546105f4906113f1565b80156106415780601f1061061657610100808354040283529160200191610641565b820191906000526020600020905b81548152906001019060200180831161062457829003601f168201915b5050505050905090565b600061065682610d16565b61066a5761066a6333d1c03960e21b610d3d565b506000908152600660205260409020546001600160a01b031690565b61069282826001610d47565b5050565b60006106a182610dea565b6001600160a01b0394851694909150811684146106c7576106c762a1148160e81b610d3d565b60008281526006602052604090208054338082146001600160a01b0388169091141761070b576106f78633610519565b61070b5761070b632ce44b5f60e11b610d3d565b801561071657600082555b6001600160a01b038681166000908152600560205260408082208054600019019055918716808252919020805460010190554260a01b17600160e11b17600085815260046020526040902055600160e11b83166107a1576001840160008181526004602052604090205461079f57600054811461079f5760008181526004602052604090208490555b505b6001600160a01b0385168481887fddf252ad1be2c89b69c2b068fc378daa952ba7f163c4a11628f55a4df523b3ef600080a4806107e8576107e8633a954ecd60e21b610d3d565b50505050505050565b3233146108455760405162461bcd60e51b815260206004820152601e60248201527f5468652063616c6c657220697320616e6f7468657220636f6e7472616374000060448201526064015b60405180910390fd5b600d5460ff166003146108915760405162461bcd60e51b8152602060048201526014602482015273092dcc6dee4e4cac6e840dad2dce840c4c2e8c6d60631b604482015260640161083c565b60076108a06001546000540390565b106108e25760405162461bcd60e51b815260206004820152601260248201527113585e081cdd5c1c1b1e481c995858da195960721b604482015260640161083c565b3360009081526005602052604090819020546001911c67ffffffffffffffff16106109405760405162461bcd60e51b815260206004820152600e60248201526d105b1c9958591e481b5a5b9d195960921b604482015260640161083c565b600c5434146109885760405162461bcd60e51b8152602060048201526014602482015273125b98dbdc9c9958dd08195d1a195c881cd95b9d60621b604482015260640161083c565b610993336001610e56565b565b6109b083838360405180602001604052806000815250610bb1565b505050565b6009546001600160a01b031633146109df5760405162461bcd60e51b815260040161083c9061142c565b600d805460ff191660ff92909216919091179055565b6009546001600160a01b03163314610a1f5760405162461bcd60e51b815260040161083c9061142c565b601255565b60006105b382610dea565b6009546001600160a01b03163314610a595760405162461bcd60e51b815260040161083c9061142c565b600b55565b60006001600160a01b038216610a7e57610a7e6323d3ad8160e21b610d3d565b506001600160a01b031660009081526005602052604090205467ffffffffffffffff1690565b6009546001600160a01b03163314610ace5760405162461bcd60e51b815260040161083c9061142c565b6109936000610e70565b6009546001600160a01b03163314610b025760405162461bcd60e51b815260040161083c9061142c565b600c55565b6060600380546105c8906113f1565b6009546001600160a01b03163314610b405760405162461bcd60e51b815260040161083c9061142c565b601155565b3360008181526007602090815260408083206001600160a01b03871680855290835292819020805460ff191686151590811790915590519081529192917f17307eab39ab6107e8899845ad3d59bd9653f200f220920489ca2b5937696c31910160405180910390a35050565b610bbc848484610696565b6001600160a01b0383163b15610bec57610bd884848484610ec2565b610bec57610bec6368d2bf6b60e11b610d3d565b50505050565b6060610bfd82610d16565b610c1157610c11630a14c4b560e41b610d3d565b6000610c2860408051602081019091526000815290565b9050805160001415610c495760405180602001604052806000815250610c74565b80610c5384610fb0565b604051602001610c64929190611461565b6040516020818303038152906040525b9392505050565b6009546001600160a01b03163314610ca55760405162461bcd60e51b815260040161083c9061142c565b6001600160a01b038116610d0a5760405162461bcd60e51b815260206004820152602660248201527f4f776e61626c653a206e6577206f776e657220697320746865207a65726f206160448201526564647265737360d01b606482015260840161083c565b610d1381610e70565b50565b60008054821080156105b3575050600090815260046020526040902054600160e01b161590565b8060005260046000fd5b6000610d5283610a24565b9050818015610d6a5750336001600160a01b03821614155b15610d8d57610d798133610519565b610d8d57610d8d6367d9dca160e11b610d3d565b60008381526006602052604080822080546001600160a01b0319166001600160a01b0388811691821790925591518693918516917f8c5be1e5ebec7d5bd14f71427d1e84f3dd0314c0f7b2291e5b200ac8c7c3b92591a450505050565b600081815260046020526040902054600160e01b8116610e465780610e41576000548210610e2257610e22636f96cda160e11b610d3d565b5b506000190160008181526004602052604090205480610e4157610e23565b919050565b610e41636f96cda160e11b610d3d565b610692828260405180602001604052806000815250610ffe565b600980546001600160a01b038381166001600160a01b0319831681179093556040519116919082907f8be0079c531659141344cd1fd0a4f28419497f9722a3daafe3b4186f6b6457e090600090a35050565b604051630a85bd0160e11b81526000906001600160a01b0385169063150b7a0290610ef7903390899088908890600401611490565b602060405180830381600087803b158015610f1157600080fd5b505af1925050508015610f41575060408051601f3d908101601f19168201909252610f3e918101906114cd565b60015b610f93573d808015610f6f576040519150601f19603f3d011682016040523d82523d6000602084013e610f74565b606091505b508051610f8b57610f8b6368d2bf6b60e11b610d3d565b805181602001fd5b6001600160e01b031916630a85bd0160e11b149050949350505050565b606060a06040510180604052602081039150506000815280825b600183039250600a81066030018353600a900480610fe757610fec565b610fca565b50819003601f19909101908152919050565b6110088383611067565b6001600160a01b0383163b156109b0576000548281035b6110326000868380600101945086610ec2565b611046576110466368d2bf6b60e11b610d3d565b81811061101f578160005414611060576110606000610d3d565b5050505050565b6000548161107f5761107f63b562e8dd60e01b610d3d565b60008181526004602090815260408083206001600160a01b0387164260a01b6001881460e11b17811790915580845260059092529091208054680100000000000000018502019055806110db576110db622e076360e81b610d3d565b818301825b808360007fddf252ad1be2c89b69c2b068fc378daa952ba7f163c4a11628f55a4df523b3ef600080a4600101808214156110e0575060005550505050565b6001600160e01b031981168114610d1357600080fd5b60006020828403121561114657600080fd5b8135610c748161111e565b60005b8381101561116c578181015183820152602001611154565b83811115610bec5750506000910152565b60008151808452611195816020860160208601611151565b601f01601f19169290920160200192915050565b602081526000610c74602083018461117d565b6000602082840312156111ce57600080fd5b5035919050565b80356001600160a01b0381168114610e4157600080fd5b600080604083850312156111ff57600080fd5b611208836111d5565b946020939093013593505050565b60008060006060848603121561122b57600080fd5b611234846111d5565b9250611242602085016111d5565b9150604084013590509250925092565b60006020828403121561126457600080fd5b813560ff81168114610c7457600080fd5b60006020828403121561128757600080fd5b610c74826111d5565b600080604083850312156112a357600080fd5b6112ac836111d5565b9150602083013580151581146112c157600080fd5b809150509250929050565b634e487b7160e01b600052604160045260246000fd5b600080600080608085870312156112f857600080fd5b611301856111d5565b935061130f602086016111d5565b925060408501359150606085013567ffffffffffffffff8082111561133357600080fd5b818701915087601f83011261134757600080fd5b813581811115611359576113596112cc565b604051601f8201601f19908116603f01168101908382118183101715611381576113816112cc565b816040528281528a602084870101111561139a57600080fd5b82602086016020830137600060208483010152809550505050505092959194509250565b600080604083850312156113d157600080fd5b6113da836111d5565b91506113e8602084016111d5565b90509250929050565b600181811c9082168061140557607f821691505b6020821081141561142657634e487b7160e01b600052602260045260246000fd5b50919050565b6020808252818101527f4f776e61626c653a2063616c6c6572206973206e6f7420746865206f776e6572604082015260600190565b60008351611473818460208801611151565b835190830190611487818360208801611151565b01949350505050565b6001600160a01b03858116825284166020820152604081018390526080606082018190526000906114c39083018461117d565b9695505050505050565b6000602082840312156114df57600080fd5b8151610c748161111e56fea2646970667358221220182dea9ad7f15db7f6d0749e5fb4ae67b54640af3b265798548b5164ec70b5b464736f6c63430008090033",
    "sourcePath": "/Users/aaxkit/Documents/nft-playground/contracts/SadCats.sol",
    "compiler": {
        "name": "solc",
        "version": "0.8.9+commit.e5eed63a"
    },
    "functionHashes": {
        "MAX_SUPPLY()": "32cb6b0c",
        "allowListPrice()": "a24e5153",
        "approve(address,uint256)": "095ea7b3",
        "balanceOf(address)": "70a08231",
        "currentMintBatch()": "e2610bba",
        "getApproved(uint256)": "081812fc",
        "isApprovedForAll(address,address)": "e985e9c5",
        "isRevealed()": "54214f69",
        "mintBatch1Root()": "52e25a70",
        "mintBatch2Root()": "160224c9",
        "name()": "06fdde03",
        "owner()": "8da5cb5b",
        "ownerOf(uint256)": "6352211e",
        "publicMint()": "26092b83",
        "publicSalePrice()": "9b6860c8",
        "renounceOwnership()": "715018a6",
        "safeTransferFrom(address,address,uint256)": "42842e0e",
        "safeTransferFrom(address,address,uint256,bytes)": "b88d4fde",
        "setAllowListPrice(uint256)": "6df9fa88",
        "setApprovalForAll(address,bool)": "a22cb465",
        "setCurrentMintBatch(uint8)": "42fd9f01",
        "setMintBatch1Root(bytes32)": "981076c7",
        "setMintBatch2Root(bytes32)": "571e5677",
        "setPublicSalePrice(uint256)": "791a2519",
        "supportsInterface(bytes4)": "01ffc9a7",
        "symbol()": "95d89b41",
        "tokenURI(uint256)": "c87b56dd",
        "totalSupply()": "18160ddd",
        "transferFrom(address,address,uint256)": "23b872dd",
        "transferOwnership(address)": "f2fde38b"
    },
    "gasEstimates": {
        "creation": {
            "codeDepositCost": "1081600",
            "executionCost": "infinite",
            "totalCost": "infinite"
        },
        "external": {
            "MAX_SUPPLY()": "263",
            "allowListPrice()": "2384",
            "approve(address,uint256)": "infinite",
            "balanceOf(address)": "2663",
            "currentMintBatch()": "2379",
            "getApproved(uint256)": "6948",
            "isApprovedForAll(address,address)": "infinite",
            "isRevealed()": "2377",
            "mintBatch1Root()": "2340",
            "mintBatch2Root()": "2363",
            "name()": "infinite",
            "owner()": "2398",
            "ownerOf(uint256)": "infinite",
            "publicMint()": "infinite",
            "publicSalePrice()": "2340",
            "renounceOwnership()": "28207",
            "safeTransferFrom(address,address,uint256)": "infinite",
            "safeTransferFrom(address,address,uint256,bytes)": "infinite",
            "setAllowListPrice(uint256)": "24510",
            "setApprovalForAll(address,bool)": "26652",
            "setCurrentMintBatch(uint8)": "26752",
            "setMintBatch1Root(bytes32)": "24575",
            "setMintBatch2Root(bytes32)": "24553",
            "setPublicSalePrice(uint256)": "24509",
            "supportsInterface(bytes4)": "557",
            "symbol()": "infinite",
            "tokenURI(uint256)": "infinite",
            "totalSupply()": "4488",
            "transferFrom(address,address,uint256)": "infinite",
            "transferOwnership(address)": "28422"
        }
    }
}